{
  "_format": "hh-sol-artifact-1",
  "contractName": "NFTMarketplace",
  "sourceName": "contracts/NFTMarketplace.sol",
  "abi": [
    {
      "inputs": [],
      "stateMutability": "nonpayable",
      "type": "constructor"
    },
    {
      "anonymous": false,
      "inputs": [
        {
          "indexed": true,
          "internalType": "address",
          "name": "owner",
          "type": "address"
        },
        {
          "indexed": true,
          "internalType": "address",
          "name": "approved",
          "type": "address"
        },
        {
          "indexed": true,
          "internalType": "uint256",
          "name": "tokenId",
          "type": "uint256"
        }
      ],
      "name": "Approval",
      "type": "event"
    },
    {
      "anonymous": false,
      "inputs": [
        {
          "indexed": true,
          "internalType": "address",
          "name": "owner",
          "type": "address"
        },
        {
          "indexed": true,
          "internalType": "address",
          "name": "operator",
          "type": "address"
        },
        {
          "indexed": false,
          "internalType": "bool",
          "name": "approved",
          "type": "bool"
        }
      ],
      "name": "ApprovalForAll",
      "type": "event"
    },
    {
      "anonymous": false,
      "inputs": [
        {
          "indexed": true,
          "internalType": "address",
          "name": "from",
          "type": "address"
        },
        {
          "indexed": true,
          "internalType": "address",
          "name": "to",
          "type": "address"
        },
        {
          "indexed": true,
          "internalType": "uint256",
          "name": "tokenId",
          "type": "uint256"
        }
      ],
      "name": "Transfer",
      "type": "event"
    },
    {
      "anonymous": false,
      "inputs": [
        {
          "indexed": true,
          "internalType": "uint256",
          "name": "tokenId",
          "type": "uint256"
        },
        {
          "indexed": false,
          "internalType": "address",
          "name": "seller",
          "type": "address"
        },
        {
          "indexed": false,
          "internalType": "address",
          "name": "owner",
          "type": "address"
        },
        {
          "indexed": false,
          "internalType": "uint256",
          "name": "price",
          "type": "uint256"
        },
        {
          "indexed": false,
          "internalType": "bool",
          "name": "sold",
          "type": "bool"
        }
      ],
      "name": "idMarketItemCreated",
      "type": "event"
    },
    {
      "inputs": [
        {
          "internalType": "address",
          "name": "to",
          "type": "address"
        },
        {
          "internalType": "uint256",
          "name": "tokenId",
          "type": "uint256"
        }
      ],
      "name": "approve",
      "outputs": [],
      "stateMutability": "nonpayable",
      "type": "function"
    },
    {
      "inputs": [
        {
          "internalType": "address",
          "name": "owner",
          "type": "address"
        }
      ],
      "name": "balanceOf",
      "outputs": [
        {
          "internalType": "uint256",
          "name": "",
          "type": "uint256"
        }
      ],
      "stateMutability": "view",
      "type": "function"
    },
    {
      "inputs": [
        {
          "internalType": "uint256",
          "name": "tokenId",
          "type": "uint256"
        }
      ],
      "name": "createMarketSale",
      "outputs": [],
      "stateMutability": "payable",
      "type": "function"
    },
    {
      "inputs": [
        {
          "internalType": "string",
          "name": "tokenURI",
          "type": "string"
        },
        {
          "internalType": "uint256",
          "name": "price",
          "type": "uint256"
        }
      ],
      "name": "createToken",
      "outputs": [
        {
          "internalType": "uint256",
          "name": "",
          "type": "uint256"
        }
      ],
      "stateMutability": "payable",
      "type": "function"
    },
    {
      "inputs": [],
      "name": "fetchItemsListed",
      "outputs": [
        {
          "components": [
            {
              "internalType": "uint256",
              "name": "tokenId",
              "type": "uint256"
            },
            {
              "internalType": "address payable",
              "name": "seller",
              "type": "address"
            },
            {
              "internalType": "address payable",
              "name": "owner",
              "type": "address"
            },
            {
              "internalType": "uint256",
              "name": "price",
              "type": "uint256"
            },
            {
              "internalType": "bool",
              "name": "sold",
              "type": "bool"
            }
          ],
          "internalType": "struct NFTMarketplace.MarketItem[]",
          "name": "",
          "type": "tuple[]"
        }
      ],
      "stateMutability": "view",
      "type": "function"
    },
    {
      "inputs": [],
      "name": "fetchMarketItem",
      "outputs": [
        {
          "components": [
            {
              "internalType": "uint256",
              "name": "tokenId",
              "type": "uint256"
            },
            {
              "internalType": "address payable",
              "name": "seller",
              "type": "address"
            },
            {
              "internalType": "address payable",
              "name": "owner",
              "type": "address"
            },
            {
              "internalType": "uint256",
              "name": "price",
              "type": "uint256"
            },
            {
              "internalType": "bool",
              "name": "sold",
              "type": "bool"
            }
          ],
          "internalType": "struct NFTMarketplace.MarketItem[]",
          "name": "",
          "type": "tuple[]"
        }
      ],
      "stateMutability": "view",
      "type": "function"
    },
    {
      "inputs": [],
      "name": "fetchMyNFT",
      "outputs": [
        {
          "components": [
            {
              "internalType": "uint256",
              "name": "tokenId",
              "type": "uint256"
            },
            {
              "internalType": "address payable",
              "name": "seller",
              "type": "address"
            },
            {
              "internalType": "address payable",
              "name": "owner",
              "type": "address"
            },
            {
              "internalType": "uint256",
              "name": "price",
              "type": "uint256"
            },
            {
              "internalType": "bool",
              "name": "sold",
              "type": "bool"
            }
          ],
          "internalType": "struct NFTMarketplace.MarketItem[]",
          "name": "",
          "type": "tuple[]"
        }
      ],
      "stateMutability": "view",
      "type": "function"
    },
    {
      "inputs": [
        {
          "internalType": "uint256",
          "name": "tokenId",
          "type": "uint256"
        }
      ],
      "name": "getApproved",
      "outputs": [
        {
          "internalType": "address",
          "name": "",
          "type": "address"
        }
      ],
      "stateMutability": "view",
      "type": "function"
    },
    {
      "inputs": [],
      "name": "getListingPrice",
      "outputs": [
        {
          "internalType": "uint256",
          "name": "",
          "type": "uint256"
        }
      ],
      "stateMutability": "view",
      "type": "function"
    },
    {
      "inputs": [
        {
          "internalType": "address",
          "name": "owner",
          "type": "address"
        },
        {
          "internalType": "address",
          "name": "operator",
          "type": "address"
        }
      ],
      "name": "isApprovedForAll",
      "outputs": [
        {
          "internalType": "bool",
          "name": "",
          "type": "bool"
        }
      ],
      "stateMutability": "view",
      "type": "function"
    },
    {
      "inputs": [],
      "name": "name",
      "outputs": [
        {
          "internalType": "string",
          "name": "",
          "type": "string"
        }
      ],
      "stateMutability": "view",
      "type": "function"
    },
    {
      "inputs": [
        {
          "internalType": "uint256",
          "name": "tokenId",
          "type": "uint256"
        }
      ],
      "name": "ownerOf",
      "outputs": [
        {
          "internalType": "address",
          "name": "",
          "type": "address"
        }
      ],
      "stateMutability": "view",
      "type": "function"
    },
    {
      "inputs": [
        {
          "internalType": "uint256",
          "name": "tokenId",
          "type": "uint256"
        },
        {
          "internalType": "uint256",
          "name": "price",
          "type": "uint256"
        }
      ],
      "name": "reSellToken",
      "outputs": [],
      "stateMutability": "payable",
      "type": "function"
    },
    {
      "inputs": [
        {
          "internalType": "address",
          "name": "from",
          "type": "address"
        },
        {
          "internalType": "address",
          "name": "to",
          "type": "address"
        },
        {
          "internalType": "uint256",
          "name": "tokenId",
          "type": "uint256"
        }
      ],
      "name": "safeTransferFrom",
      "outputs": [],
      "stateMutability": "nonpayable",
      "type": "function"
    },
    {
      "inputs": [
        {
          "internalType": "address",
          "name": "from",
          "type": "address"
        },
        {
          "internalType": "address",
          "name": "to",
          "type": "address"
        },
        {
          "internalType": "uint256",
          "name": "tokenId",
          "type": "uint256"
        },
        {
          "internalType": "bytes",
          "name": "data",
          "type": "bytes"
        }
      ],
      "name": "safeTransferFrom",
      "outputs": [],
      "stateMutability": "nonpayable",
      "type": "function"
    },
    {
      "inputs": [
        {
          "internalType": "address",
          "name": "operator",
          "type": "address"
        },
        {
          "internalType": "bool",
          "name": "approved",
          "type": "bool"
        }
      ],
      "name": "setApprovalForAll",
      "outputs": [],
      "stateMutability": "nonpayable",
      "type": "function"
    },
    {
      "inputs": [
        {
          "internalType": "bytes4",
          "name": "interfaceId",
          "type": "bytes4"
        }
      ],
      "name": "supportsInterface",
      "outputs": [
        {
          "internalType": "bool",
          "name": "",
          "type": "bool"
        }
      ],
      "stateMutability": "view",
      "type": "function"
    },
    {
      "inputs": [],
      "name": "symbol",
      "outputs": [
        {
          "internalType": "string",
          "name": "",
          "type": "string"
        }
      ],
      "stateMutability": "view",
      "type": "function"
    },
    {
      "inputs": [
        {
          "internalType": "uint256",
          "name": "tokenId",
          "type": "uint256"
        }
      ],
      "name": "tokenURI",
      "outputs": [
        {
          "internalType": "string",
          "name": "",
          "type": "string"
        }
      ],
      "stateMutability": "view",
      "type": "function"
    },
    {
      "inputs": [
        {
          "internalType": "address",
          "name": "from",
          "type": "address"
        },
        {
          "internalType": "address",
          "name": "to",
          "type": "address"
        },
        {
          "internalType": "uint256",
          "name": "tokenId",
          "type": "uint256"
        }
      ],
      "name": "transferFrom",
      "outputs": [],
      "stateMutability": "nonpayable",
      "type": "function"
    },
    {
      "inputs": [
        {
          "internalType": "uint256",
          "name": "_listingPrice",
          "type": "uint256"
        }
      ],
      "name": "updateTheListingPrice",
      "outputs": [],
      "stateMutability": "payable",
      "type": "function"
    }
  ],
  "bytecode": "0x60806040526605543df729c0006009553480156200001c57600080fd5b506040518060400160405280601381526020017f4e4654204d657461766572736520546f6b656e000000000000000000000000008152506040518060400160405280600581526020017f4d794e465400000000000000000000000000000000000000000000000000000081525081600090816200009a919062000355565b508060019081620000ac919062000355565b5050503373ffffffffffffffffffffffffffffffffffffffff16600a60009054906101000a905050506200043c565b600081519050919050565b7f4e487b7100000000000000000000000000000000000000000000000000000000600052604160045260246000fd5b7f4e487b7100000000000000000000000000000000000000000000000000000000600052602260045260246000fd5b600060028204905060018216806200015d57607f821691505b60208210810362000173576200017262000115565b5b50919050565b60008190508160005260206000209050919050565b60006020601f8301049050919050565b600082821b905092915050565b600060088302620001dd7fffffffffffffffffffffffffffffffffffffffffffffffffffffffffffffffff826200019e565b620001e986836200019e565b95508019841693508086168417925050509392505050565b6000819050919050565b6000819050919050565b600062000236620002306200022a8462000201565b6200020b565b62000201565b9050919050565b6000819050919050565b620002528362000215565b6200026a62000261826200023d565b848454620001ab565b825550505050565b600090565b6200028162000272565b6200028e81848462000247565b505050565b5b81811015620002b657620002aa60008262000277565b60018101905062000294565b5050565b601f8211156200030557620002cf8162000179565b620002da846200018e565b81016020851015620002ea578190505b62000302620002f9856200018e565b83018262000293565b50505b505050565b600082821c905092915050565b60006200032a600019846008026200030a565b1980831691505092915050565b600062000345838362000317565b9150826002028217905092915050565b6200036082620000db565b67ffffffffffffffff8111156200037c576200037b620000e6565b5b62000388825462000144565b62000395828285620002ba565b600060209050601f831160018114620003cd5760008415620003b8578287015190505b620003c4858262000337565b86555062000434565b601f198416620003dd8662000179565b60005b828110156200040757848901518255600182019150602085019450602081019050620003e0565b8683101562000427578489015162000423601f89168262000317565b8355505b6001600288020188555050505b505050505050565b6140ee806200044c6000396000f3fe60806040526004361061012a5760003560e01c806370a08231116100ab578063a22cb4651161006f578063a22cb465146103dd578063b88d4fde14610406578063be9af5361461042f578063c18763f71461044b578063c87b56dd14610476578063e985e9c5146104b35761012a565b806370a08231146102fe57806372b3b6201461033b57806385535b251461036b5780638fafd0211461038757806395d89b41146103b25761012a565b80632161c243116100f25780632161c2431461022857806323b872dd1461024457806342842e0e1461026d57806345f8fa80146102965780636352211e146102c15761012a565b806301ffc9a71461012f57806306fdde031461016c578063081812fc14610197578063095ea7b3146101d457806312e85585146101fd575b600080fd5b34801561013b57600080fd5b5061015660048036038101906101519190612976565b6104f0565b60405161016391906129be565b60405180910390f35b34801561017857600080fd5b506101816105d2565b60405161018e9190612a69565b60405180910390f35b3480156101a357600080fd5b506101be60048036038101906101b99190612ac1565b610664565b6040516101cb9190612b2f565b60405180910390f35b3480156101e057600080fd5b506101fb60048036038101906101f69190612b76565b6106aa565b005b34801561020957600080fd5b506102126107c1565b60405161021f9190612bc5565b60405180910390f35b610242600480360381019061023d9190612ac1565b6107cb565b005b34801561025057600080fd5b5061026b60048036038101906102669190612be0565b610865565b005b34801561027957600080fd5b50610294600480360381019061028f9190612be0565b6108c5565b005b3480156102a257600080fd5b506102ab6108e5565b6040516102b89190612d89565b60405180910390f35b3480156102cd57600080fd5b506102e860048036038101906102e39190612ac1565b610bd1565b6040516102f59190612b2f565b60405180910390f35b34801561030a57600080fd5b5061032560048036038101906103209190612dab565b610c82565b6040516103329190612bc5565b60405180910390f35b61035560048036038101906103509190612f0d565b610d39565b6040516103629190612bc5565b60405180910390f35b61038560048036038101906103809190612f69565b610d7b565b005b34801561039357600080fd5b5061039c610f70565b6040516103a99190612d89565b60405180910390f35b3480156103be57600080fd5b506103c76111d8565b6040516103d49190612a69565b60405180910390f35b3480156103e957600080fd5b5061040460048036038101906103ff9190612fd5565b61126a565b005b34801561041257600080fd5b5061042d600480360381019061042891906130b6565b611280565b005b61044960048036038101906104449190612ac1565b6112e2565b005b34801561045757600080fd5b5061046061151a565b60405161046d9190612d89565b60405180910390f35b34801561048257600080fd5b5061049d60048036038101906104989190612ac1565b611806565b6040516104aa9190612a69565b60405180910390f35b3480156104bf57600080fd5b506104da60048036038101906104d59190613139565b611918565b6040516104e791906129be565b60405180910390f35b60007f80ac58cd000000000000000000000000000000000000000000000000000000007bffffffffffffffffffffffffffffffffffffffffffffffffffffffff1916827bffffffffffffffffffffffffffffffffffffffffffffffffffffffff191614806105bb57507f5b5e139f000000000000000000000000000000000000000000000000000000007bffffffffffffffffffffffffffffffffffffffffffffffffffffffff1916827bffffffffffffffffffffffffffffffffffffffffffffffffffffffff1916145b806105cb57506105ca826119ac565b5b9050919050565b6060600080546105e1906131a8565b80601f016020809104026020016040519081016040528092919081815260200182805461060d906131a8565b801561065a5780601f1061062f5761010080835404028352916020019161065a565b820191906000526020600020905b81548152906001019060200180831161063d57829003601f168201915b5050505050905090565b600061066f82611a16565b6004600083815260200190815260200160002060009054906101000a900473ffffffffffffffffffffffffffffffffffffffff169050919050565b60006106b582610bd1565b90508073ffffffffffffffffffffffffffffffffffffffff168373ffffffffffffffffffffffffffffffffffffffff1603610725576040517f08c379a000000000000000000000000000000000000000000000000000000000815260040161071c9061324b565b60405180910390fd5b8073ffffffffffffffffffffffffffffffffffffffff16610744611a61565b73ffffffffffffffffffffffffffffffffffffffff16148061077357506107728161076d611a61565b611918565b5b6107b2576040517f08c379a00000000000000000000000000000000000000000000000000000000081526004016107a9906132dd565b60405180910390fd5b6107bc8383611a69565b505050565b6000600954905090565b600a60009054906101000a900473ffffffffffffffffffffffffffffffffffffffff1673ffffffffffffffffffffffffffffffffffffffff163373ffffffffffffffffffffffffffffffffffffffff161461085b576040517f08c379a00000000000000000000000000000000000000000000000000000000081526004016108529061336f565b60405180910390fd5b8060098190555050565b610876610870611a61565b82611b22565b6108b5576040517f08c379a00000000000000000000000000000000000000000000000000000000081526004016108ac90613401565b60405180910390fd5b6108c0838383611bb7565b505050565b6108e083838360405180602001604052806000815250611280565b505050565b606060006108f36007611e1d565b905060008060005b8381101561099b573373ffffffffffffffffffffffffffffffffffffffff16600b600060018461092b9190613450565b815260200190815260200160002060010160009054906101000a900473ffffffffffffffffffffffffffffffffffffffff1673ffffffffffffffffffffffffffffffffffffffff1603610988576001836109859190613450565b92505b808061099390613484565b9150506108fb565b5060008267ffffffffffffffff8111156109b8576109b7612de2565b5b6040519080825280602002602001820160405280156109f157816020015b6109de6128ad565b8152602001906001900390816109d65790505b50905060005b84811015610bc6573373ffffffffffffffffffffffffffffffffffffffff16600b6000600184610a279190613450565b815260200190815260200160002060010160009054906101000a900473ffffffffffffffffffffffffffffffffffffffff1673ffffffffffffffffffffffffffffffffffffffff1603610bb3576000600182610a839190613450565b90506000600b60008381526020019081526020016000209050806040518060a0016040529081600082015481526020016001820160009054906101000a900473ffffffffffffffffffffffffffffffffffffffff1673ffffffffffffffffffffffffffffffffffffffff1673ffffffffffffffffffffffffffffffffffffffff1681526020016002820160009054906101000a900473ffffffffffffffffffffffffffffffffffffffff1673ffffffffffffffffffffffffffffffffffffffff1673ffffffffffffffffffffffffffffffffffffffff168152602001600382015481526020016004820160009054906101000a900460ff161515151581525050848681518110610b9657610b956134cc565b5b6020026020010181905250600185610bae9190613450565b945050505b8080610bbe90613484565b9150506109f7565b508094505050505090565b6000806002600084815260200190815260200160002060009054906101000a900473ffffffffffffffffffffffffffffffffffffffff169050600073ffffffffffffffffffffffffffffffffffffffff168173ffffffffffffffffffffffffffffffffffffffff1603610c79576040517f08c379a0000000000000000000000000000000000000000000000000000000008152600401610c7090613547565b60405180910390fd5b80915050919050565b60008073ffffffffffffffffffffffffffffffffffffffff168273ffffffffffffffffffffffffffffffffffffffff1603610cf2576040517f08c379a0000000000000000000000000000000000000000000000000000000008152600401610ce9906135d9565b60405180910390fd5b600360008373ffffffffffffffffffffffffffffffffffffffff1673ffffffffffffffffffffffffffffffffffffffff168152602001908152602001600020549050919050565b6000610d456007611e2b565b6000610d516007611e1d565b9050610d5d3382611e41565b610d67818561201a565b610d718184612087565b8091505092915050565b3373ffffffffffffffffffffffffffffffffffffffff16600b600084815260200190815260200160002060020160009054906101000a900473ffffffffffffffffffffffffffffffffffffffff1673ffffffffffffffffffffffffffffffffffffffff1614610e1f576040517f08c379a0000000000000000000000000000000000000000000000000000000008152600401610e1690613645565b60405180910390fd5b6009543414610e63576040517f08c379a0000000000000000000000000000000000000000000000000000000008152600401610e5a906136d7565b60405180910390fd5b6000600b600084815260200190815260200160002060040160006101000a81548160ff02191690831515021790555080600b60008481526020019081526020016000206003018190555033600b600084815260200190815260200160002060010160006101000a81548173ffffffffffffffffffffffffffffffffffffffff021916908373ffffffffffffffffffffffffffffffffffffffff16021790555030600b600084815260200190815260200160002060020160006101000a81548173ffffffffffffffffffffffffffffffffffffffff021916908373ffffffffffffffffffffffffffffffffffffffff160217905550610f61600861228a565b610f6c333084611bb7565b5050565b60606000610f7e6007611e1d565b90506000610f8c6008611e1d565b610f966007611e1d565b610fa091906136f7565b90506000808267ffffffffffffffff811115610fbf57610fbe612de2565b5b604051908082528060200260200182016040528015610ff857816020015b610fe56128ad565b815260200190600190039081610fdd5790505b50905060005b848110156111cd573073ffffffffffffffffffffffffffffffffffffffff16600b600060018461102e9190613450565b815260200190815260200160002060020160009054906101000a900473ffffffffffffffffffffffffffffffffffffffff1673ffffffffffffffffffffffffffffffffffffffff16036111ba57600060018261108a9190613450565b90506000600b60008381526020019081526020016000209050806040518060a0016040529081600082015481526020016001820160009054906101000a900473ffffffffffffffffffffffffffffffffffffffff1673ffffffffffffffffffffffffffffffffffffffff1673ffffffffffffffffffffffffffffffffffffffff1681526020016002820160009054906101000a900473ffffffffffffffffffffffffffffffffffffffff1673ffffffffffffffffffffffffffffffffffffffff1673ffffffffffffffffffffffffffffffffffffffff168152602001600382015481526020016004820160009054906101000a900460ff16151515158152505084868151811061119d5761119c6134cc565b5b60200260200101819052506001856111b59190613450565b945050505b80806111c590613484565b915050610ffe565b508094505050505090565b6060600180546111e7906131a8565b80601f0160208091040260200160405190810160405280929190818152602001828054611213906131a8565b80156112605780601f1061123557610100808354040283529160200191611260565b820191906000526020600020905b81548152906001019060200180831161124357829003601f168201915b5050505050905090565b61127c611275611a61565b83836122e6565b5050565b61129161128b611a61565b83611b22565b6112d0576040517f08c379a00000000000000000000000000000000000000000000000000000000081526004016112c790613401565b60405180910390fd5b6112dc84848484612452565b50505050565b6000600b600083815260200190815260200160002060030154905080341461133f576040517f08c379a00000000000000000000000000000000000000000000000000000000081526004016113369061379d565b60405180910390fd5b33600b600084815260200190815260200160002060020160006101000a81548173ffffffffffffffffffffffffffffffffffffffff021916908373ffffffffffffffffffffffffffffffffffffffff1602179055506001600b600084815260200190815260200160002060040160006101000a81548160ff0219169083151502179055506000600b600084815260200190815260200160002060020160006101000a81548173ffffffffffffffffffffffffffffffffffffffff021916908373ffffffffffffffffffffffffffffffffffffffff1602179055506114236008611e2b565b61142e303384611bb7565b600a60009054906101000a900473ffffffffffffffffffffffffffffffffffffffff1673ffffffffffffffffffffffffffffffffffffffff166108fc6009549081150290604051600060405180830381858888f19350505050158015611498573d6000803e3d6000fd5b50600b600083815260200190815260200160002060010160009054906101000a900473ffffffffffffffffffffffffffffffffffffffff1673ffffffffffffffffffffffffffffffffffffffff166108fc349081150290604051600060405180830381858888f19350505050158015611515573d6000803e3d6000fd5b505050565b606060006115286007611e1d565b905060008060005b838110156115d0573373ffffffffffffffffffffffffffffffffffffffff16600b60006001846115609190613450565b815260200190815260200160002060020160009054906101000a900473ffffffffffffffffffffffffffffffffffffffff1673ffffffffffffffffffffffffffffffffffffffff16036115bd576001836115ba9190613450565b92505b80806115c890613484565b915050611530565b5060008267ffffffffffffffff8111156115ed576115ec612de2565b5b60405190808252806020026020018201604052801561162657816020015b6116136128ad565b81526020019060019003908161160b5790505b50905060005b848110156117fb573373ffffffffffffffffffffffffffffffffffffffff16600b600060018461165c9190613450565b815260200190815260200160002060020160009054906101000a900473ffffffffffffffffffffffffffffffffffffffff1673ffffffffffffffffffffffffffffffffffffffff16036117e85760006001826116b89190613450565b90506000600b60008381526020019081526020016000209050806040518060a0016040529081600082015481526020016001820160009054906101000a900473ffffffffffffffffffffffffffffffffffffffff1673ffffffffffffffffffffffffffffffffffffffff1673ffffffffffffffffffffffffffffffffffffffff1681526020016002820160009054906101000a900473ffffffffffffffffffffffffffffffffffffffff1673ffffffffffffffffffffffffffffffffffffffff1673ffffffffffffffffffffffffffffffffffffffff168152602001600382015481526020016004820160009054906101000a900460ff1615151515815250508486815181106117cb576117ca6134cc565b5b60200260200101819052506001856117e39190613450565b945050505b80806117f390613484565b91505061162c565b508094505050505090565b606061181182611a16565b6000600660008481526020019081526020016000208054611831906131a8565b80601f016020809104026020016040519081016040528092919081815260200182805461185d906131a8565b80156118aa5780601f1061187f576101008083540402835291602001916118aa565b820191906000526020600020905b81548152906001019060200180831161188d57829003601f168201915b5050505050905060006118bb6124ae565b905060008151036118d0578192505050611913565b6000825111156119055780826040516020016118ed9291906137f9565b60405160208183030381529060405292505050611913565b61190e846124c5565b925050505b919050565b6000600560008473ffffffffffffffffffffffffffffffffffffffff1673ffffffffffffffffffffffffffffffffffffffff16815260200190815260200160002060008373ffffffffffffffffffffffffffffffffffffffff1673ffffffffffffffffffffffffffffffffffffffff16815260200190815260200160002060009054906101000a900460ff16905092915050565b60007f01ffc9a7000000000000000000000000000000000000000000000000000000007bffffffffffffffffffffffffffffffffffffffffffffffffffffffff1916827bffffffffffffffffffffffffffffffffffffffffffffffffffffffff1916149050919050565b611a1f8161252d565b611a5e576040517f08c379a0000000000000000000000000000000000000000000000000000000008152600401611a5590613547565b60405180910390fd5b50565b600033905090565b816004600083815260200190815260200160002060006101000a81548173ffffffffffffffffffffffffffffffffffffffff021916908373ffffffffffffffffffffffffffffffffffffffff160217905550808273ffffffffffffffffffffffffffffffffffffffff16611adc83610bd1565b73ffffffffffffffffffffffffffffffffffffffff167f8c5be1e5ebec7d5bd14f71427d1e84f3dd0314c0f7b2291e5b200ac8c7c3b92560405160405180910390a45050565b600080611b2e83610bd1565b90508073ffffffffffffffffffffffffffffffffffffffff168473ffffffffffffffffffffffffffffffffffffffff161480611b705750611b6f8185611918565b5b80611bae57508373ffffffffffffffffffffffffffffffffffffffff16611b9684610664565b73ffffffffffffffffffffffffffffffffffffffff16145b91505092915050565b8273ffffffffffffffffffffffffffffffffffffffff16611bd782610bd1565b73ffffffffffffffffffffffffffffffffffffffff1614611c2d576040517f08c379a0000000000000000000000000000000000000000000000000000000008152600401611c249061388f565b60405180910390fd5b600073ffffffffffffffffffffffffffffffffffffffff168273ffffffffffffffffffffffffffffffffffffffff1603611c9c576040517f08c379a0000000000000000000000000000000000000000000000000000000008152600401611c9390613921565b60405180910390fd5b611ca7838383612599565b611cb2600082611a69565b6001600360008573ffffffffffffffffffffffffffffffffffffffff1673ffffffffffffffffffffffffffffffffffffffff1681526020019081526020016000206000828254611d0291906136f7565b925050819055506001600360008473ffffffffffffffffffffffffffffffffffffffff1673ffffffffffffffffffffffffffffffffffffffff1681526020019081526020016000206000828254611d599190613450565b92505081905550816002600083815260200190815260200160002060006101000a81548173ffffffffffffffffffffffffffffffffffffffff021916908373ffffffffffffffffffffffffffffffffffffffff160217905550808273ffffffffffffffffffffffffffffffffffffffff168473ffffffffffffffffffffffffffffffffffffffff167fddf252ad1be2c89b69c2b068fc378daa952ba7f163c4a11628f55a4df523b3ef60405160405180910390a4611e1883838361259e565b505050565b600081600001549050919050565b6001816000016000828254019250508190555050565b600073ffffffffffffffffffffffffffffffffffffffff168273ffffffffffffffffffffffffffffffffffffffff1603611eb0576040517f08c379a0000000000000000000000000000000000000000000000000000000008152600401611ea79061398d565b60405180910390fd5b611eb98161252d565b15611ef9576040517f08c379a0000000000000000000000000000000000000000000000000000000008152600401611ef0906139f9565b60405180910390fd5b611f0560008383612599565b6001600360008473ffffffffffffffffffffffffffffffffffffffff1673ffffffffffffffffffffffffffffffffffffffff1681526020019081526020016000206000828254611f559190613450565b92505081905550816002600083815260200190815260200160002060006101000a81548173ffffffffffffffffffffffffffffffffffffffff021916908373ffffffffffffffffffffffffffffffffffffffff160217905550808273ffffffffffffffffffffffffffffffffffffffff16600073ffffffffffffffffffffffffffffffffffffffff167fddf252ad1be2c89b69c2b068fc378daa952ba7f163c4a11628f55a4df523b3ef60405160405180910390a46120166000838361259e565b5050565b6120238261252d565b612062576040517f08c379a000000000000000000000000000000000000000000000000000000000815260040161205990613a8b565b60405180910390fd5b806006600084815260200190815260200160002090816120829190613c57565b505050565b600081116120ca576040517f08c379a00000000000000000000000000000000000000000000000000000000081526004016120c190613d75565b60405180910390fd5b600954341461210e576040517f08c379a0000000000000000000000000000000000000000000000000000000008152600401612105906136d7565b60405180910390fd5b6040518060a001604052808381526020013373ffffffffffffffffffffffffffffffffffffffff1681526020013073ffffffffffffffffffffffffffffffffffffffff16815260200182815260200160001515815250600b60008481526020019081526020016000206000820151816000015560208201518160010160006101000a81548173ffffffffffffffffffffffffffffffffffffffff021916908373ffffffffffffffffffffffffffffffffffffffff16021790555060408201518160020160006101000a81548173ffffffffffffffffffffffffffffffffffffffff021916908373ffffffffffffffffffffffffffffffffffffffff1602179055506060820151816003015560808201518160040160006101000a81548160ff021916908315150217905550905050612247333084611bb7565b817fdebdb32cb5230ab727c9c361b16fdb2015df225c10e6a3e7f60ecd5dc5be4516333084600060405161227e9493929190613d95565b60405180910390a25050565b600081600001549050600081116122d6576040517f08c379a00000000000000000000000000000000000000000000000000000000081526004016122cd90613e26565b60405180910390fd5b6001810382600001819055505050565b8173ffffffffffffffffffffffffffffffffffffffff168373ffffffffffffffffffffffffffffffffffffffff1603612354576040517f08c379a000000000000000000000000000000000000000000000000000000000815260040161234b90613e92565b60405180910390fd5b80600560008573ffffffffffffffffffffffffffffffffffffffff1673ffffffffffffffffffffffffffffffffffffffff16815260200190815260200160002060008473ffffffffffffffffffffffffffffffffffffffff1673ffffffffffffffffffffffffffffffffffffffff16815260200190815260200160002060006101000a81548160ff0219169083151502179055508173ffffffffffffffffffffffffffffffffffffffff168373ffffffffffffffffffffffffffffffffffffffff167f17307eab39ab6107e8899845ad3d59bd9653f200f220920489ca2b5937696c318360405161244591906129be565b60405180910390a3505050565b61245d848484611bb7565b612469848484846125a3565b6124a8576040517f08c379a000000000000000000000000000000000000000000000000000000000815260040161249f90613f24565b60405180910390fd5b50505050565b606060405180602001604052806000815250905090565b60606124d082611a16565b60006124da6124ae565b905060008151116124fa5760405180602001604052806000815250612525565b806125048461272a565b6040516020016125159291906137f9565b6040516020818303038152906040525b915050919050565b60008073ffffffffffffffffffffffffffffffffffffffff166002600084815260200190815260200160002060009054906101000a900473ffffffffffffffffffffffffffffffffffffffff1673ffffffffffffffffffffffffffffffffffffffff1614159050919050565b505050565b505050565b60006125c48473ffffffffffffffffffffffffffffffffffffffff1661288a565b1561271d578373ffffffffffffffffffffffffffffffffffffffff1663150b7a026125ed611a61565b8786866040518563ffffffff1660e01b815260040161260f9493929190613f99565b6020604051808303816000875af192505050801561264b57506040513d601f19601f820116820180604052508101906126489190613ffa565b60015b6126cd573d806000811461267b576040519150601f19603f3d011682016040523d82523d6000602084013e612680565b606091505b5060008151036126c5576040517f08c379a00000000000000000000000000000000000000000000000000000000081526004016126bc90613f24565b60405180910390fd5b805181602001fd5b63150b7a0260e01b7bffffffffffffffffffffffffffffffffffffffffffffffffffffffff1916817bffffffffffffffffffffffffffffffffffffffffffffffffffffffff191614915050612722565b600190505b949350505050565b606060008203612771576040518060400160405280600181526020017f30000000000000000000000000000000000000000000000000000000000000008152509050612885565b600082905060005b600082146127a357808061278c90613484565b915050600a8261279c9190614056565b9150612779565b60008167ffffffffffffffff8111156127bf576127be612de2565b5b6040519080825280601f01601f1916602001820160405280156127f15781602001600182028036833780820191505090505b5090505b6000851461287e5760018261280a91906136f7565b9150600a856128199190614087565b60306128259190613450565b60f81b81838151811061283b5761283a6134cc565b5b60200101907effffffffffffffffffffffffffffffffffffffffffffffffffffffffffffff1916908160001a905350600a856128779190614056565b94506127f5565b8093505050505b919050565b6000808273ffffffffffffffffffffffffffffffffffffffff163b119050919050565b6040518060a0016040528060008152602001600073ffffffffffffffffffffffffffffffffffffffff168152602001600073ffffffffffffffffffffffffffffffffffffffff168152602001600081526020016000151581525090565b6000604051905090565b600080fd5b600080fd5b60007fffffffff0000000000000000000000000000000000000000000000000000000082169050919050565b6129538161291e565b811461295e57600080fd5b50565b6000813590506129708161294a565b92915050565b60006020828403121561298c5761298b612914565b5b600061299a84828501612961565b91505092915050565b60008115159050919050565b6129b8816129a3565b82525050565b60006020820190506129d360008301846129af565b92915050565b600081519050919050565b600082825260208201905092915050565b60005b83811015612a135780820151818401526020810190506129f8565b60008484015250505050565b6000601f19601f8301169050919050565b6000612a3b826129d9565b612a4581856129e4565b9350612a558185602086016129f5565b612a5e81612a1f565b840191505092915050565b60006020820190508181036000830152612a838184612a30565b905092915050565b6000819050919050565b612a9e81612a8b565b8114612aa957600080fd5b50565b600081359050612abb81612a95565b92915050565b600060208284031215612ad757612ad6612914565b5b6000612ae584828501612aac565b91505092915050565b600073ffffffffffffffffffffffffffffffffffffffff82169050919050565b6000612b1982612aee565b9050919050565b612b2981612b0e565b82525050565b6000602082019050612b446000830184612b20565b92915050565b612b5381612b0e565b8114612b5e57600080fd5b50565b600081359050612b7081612b4a565b92915050565b60008060408385031215612b8d57612b8c612914565b5b6000612b9b85828601612b61565b9250506020612bac85828601612aac565b9150509250929050565b612bbf81612a8b565b82525050565b6000602082019050612bda6000830184612bb6565b92915050565b600080600060608486031215612bf957612bf8612914565b5b6000612c0786828701612b61565b9350506020612c1886828701612b61565b9250506040612c2986828701612aac565b9150509250925092565b600081519050919050565b600082825260208201905092915050565b6000819050602082019050919050565b612c6881612a8b565b82525050565b6000612c7982612aee565b9050919050565b612c8981612c6e565b82525050565b612c98816129a3565b82525050565b60a082016000820151612cb46000850182612c5f565b506020820151612cc76020850182612c80565b506040820151612cda6040850182612c80565b506060820151612ced6060850182612c5f565b506080820151612d006080850182612c8f565b50505050565b6000612d128383612c9e565b60a08301905092915050565b6000602082019050919050565b6000612d3682612c33565b612d408185612c3e565b9350612d4b83612c4f565b8060005b83811015612d7c578151612d638882612d06565b9750612d6e83612d1e565b925050600181019050612d4f565b5085935050505092915050565b60006020820190508181036000830152612da38184612d2b565b905092915050565b600060208284031215612dc157612dc0612914565b5b6000612dcf84828501612b61565b91505092915050565b600080fd5b600080fd5b7f4e487b7100000000000000000000000000000000000000000000000000000000600052604160045260246000fd5b612e1a82612a1f565b810181811067ffffffffffffffff82111715612e3957612e38612de2565b5b80604052505050565b6000612e4c61290a565b9050612e588282612e11565b919050565b600067ffffffffffffffff821115612e7857612e77612de2565b5b612e8182612a1f565b9050602081019050919050565b82818337600083830152505050565b6000612eb0612eab84612e5d565b612e42565b905082815260208101848484011115612ecc57612ecb612ddd565b5b612ed7848285612e8e565b509392505050565b600082601f830112612ef457612ef3612dd8565b5b8135612f04848260208601612e9d565b91505092915050565b60008060408385031215612f2457612f23612914565b5b600083013567ffffffffffffffff811115612f4257612f41612919565b5b612f4e85828601612edf565b9250506020612f5f85828601612aac565b9150509250929050565b60008060408385031215612f8057612f7f612914565b5b6000612f8e85828601612aac565b9250506020612f9f85828601612aac565b9150509250929050565b612fb2816129a3565b8114612fbd57600080fd5b50565b600081359050612fcf81612fa9565b92915050565b60008060408385031215612fec57612feb612914565b5b6000612ffa85828601612b61565b925050602061300b85828601612fc0565b9150509250929050565b600067ffffffffffffffff8211156130305761302f612de2565b5b61303982612a1f565b9050602081019050919050565b600061305961305484613015565b612e42565b90508281526020810184848401111561307557613074612ddd565b5b613080848285612e8e565b509392505050565b600082601f83011261309d5761309c612dd8565b5b81356130ad848260208601613046565b91505092915050565b600080600080608085870312156130d0576130cf612914565b5b60006130de87828801612b61565b94505060206130ef87828801612b61565b935050604061310087828801612aac565b925050606085013567ffffffffffffffff81111561312157613120612919565b5b61312d87828801613088565b91505092959194509250565b600080604083850312156131505761314f612914565b5b600061315e85828601612b61565b925050602061316f85828601612b61565b9150509250929050565b7f4e487b7100000000000000000000000000000000000000000000000000000000600052602260045260246000fd5b600060028204905060018216806131c057607f821691505b6020821081036131d3576131d2613179565b5b50919050565b7f4552433732313a20617070726f76616c20746f2063757272656e74206f776e6560008201527f7200000000000000000000000000000000000000000000000000000000000000602082015250565b60006132356021836129e4565b9150613240826131d9565b604082019050919050565b6000602082019050818103600083015261326481613228565b9050919050565b7f4552433732313a20617070726f76652063616c6c6572206973206e6f7420746f60008201527f6b656e206f776e6572206e6f7220617070726f76656420666f7220616c6c0000602082015250565b60006132c7603e836129e4565b91506132d28261326b565b604082019050919050565b600060208201905081810360008301526132f6816132ba565b9050919050565b7f6f6e6c79206f776e6572206f6620746865206d61726b6574706c61636520636160008201527f6e206368616e676520746865206c697374696e67207072696365000000000000602082015250565b6000613359603a836129e4565b9150613364826132fd565b604082019050919050565b600060208201905081810360008301526133888161334c565b9050919050565b7f4552433732313a2063616c6c6572206973206e6f7420746f6b656e206f776e6560008201527f72206e6f7220617070726f766564000000000000000000000000000000000000602082015250565b60006133eb602e836129e4565b91506133f68261338f565b604082019050919050565b6000602082019050818103600083015261341a816133de565b9050919050565b7f4e487b7100000000000000000000000000000000000000000000000000000000600052601160045260246000fd5b600061345b82612a8b565b915061346683612a8b565b925082820190508082111561347e5761347d613421565b5b92915050565b600061348f82612a8b565b91507fffffffffffffffffffffffffffffffffffffffffffffffffffffffffffffffff82036134c1576134c0613421565b5b600182019050919050565b7f4e487b7100000000000000000000000000000000000000000000000000000000600052603260045260246000fd5b7f4552433732313a20696e76616c696420746f6b656e2049440000000000000000600082015250565b60006135316018836129e4565b915061353c826134fb565b602082019050919050565b6000602082019050818103600083015261356081613524565b9050919050565b7f4552433732313a2061646472657373207a65726f206973206e6f74206120766160008201527f6c6964206f776e65720000000000000000000000000000000000000000000000602082015250565b60006135c36029836129e4565b91506135ce82613567565b604082019050919050565b600060208201905081810360008301526135f2816135b6565b9050919050565b7f4f6e6c79206974656d206f776e65722063616e20646f206f7065726174696f6e600082015250565b600061362f6020836129e4565b915061363a826135f9565b602082019050919050565b6000602082019050818103600083015261365e81613622565b9050919050565b7f5072696365206d75737420626520657175616c20746f206c697374696e67207060008201527f7269636500000000000000000000000000000000000000000000000000000000602082015250565b60006136c16024836129e4565b91506136cc82613665565b604082019050919050565b600060208201905081810360008301526136f0816136b4565b9050919050565b600061370282612a8b565b915061370d83612a8b565b925082820390508181111561372557613724613421565b5b92915050565b7f506c65617365207375626d6974207468652061736b696e67207072696365206960008201527f6e206f7264657220746f20636f6d706c65746520746865207075726368617365602082015250565b60006137876040836129e4565b91506137928261372b565b604082019050919050565b600060208201905081810360008301526137b68161377a565b9050919050565b600081905092915050565b60006137d3826129d9565b6137dd81856137bd565b93506137ed8185602086016129f5565b80840191505092915050565b600061380582856137c8565b915061381182846137c8565b91508190509392505050565b7f4552433732313a207472616e736665722066726f6d20696e636f72726563742060008201527f6f776e6572000000000000000000000000000000000000000000000000000000602082015250565b60006138796025836129e4565b91506138848261381d565b604082019050919050565b600060208201905081810360008301526138a88161386c565b9050919050565b7f4552433732313a207472616e7366657220746f20746865207a65726f2061646460008201527f7265737300000000000000000000000000000000000000000000000000000000602082015250565b600061390b6024836129e4565b9150613916826138af565b604082019050919050565b6000602082019050818103600083015261393a816138fe565b9050919050565b7f4552433732313a206d696e7420746f20746865207a65726f2061646472657373600082015250565b60006139776020836129e4565b915061398282613941565b602082019050919050565b600060208201905081810360008301526139a68161396a565b9050919050565b7f4552433732313a20746f6b656e20616c7265616479206d696e74656400000000600082015250565b60006139e3601c836129e4565b91506139ee826139ad565b602082019050919050565b60006020820190508181036000830152613a12816139d6565b9050919050565b7f45524337323155524953746f726167653a2055524920736574206f66206e6f6e60008201527f6578697374656e7420746f6b656e000000000000000000000000000000000000602082015250565b6000613a75602e836129e4565b9150613a8082613a19565b604082019050919050565b60006020820190508181036000830152613aa481613a68565b9050919050565b60008190508160005260206000209050919050565b60006020601f8301049050919050565b600082821b905092915050565b600060088302613b0d7fffffffffffffffffffffffffffffffffffffffffffffffffffffffffffffffff82613ad0565b613b178683613ad0565b95508019841693508086168417925050509392505050565b6000819050919050565b6000613b54613b4f613b4a84612a8b565b613b2f565b612a8b565b9050919050565b6000819050919050565b613b6e83613b39565b613b82613b7a82613b5b565b848454613add565b825550505050565b600090565b613b97613b8a565b613ba2818484613b65565b505050565b5b81811015613bc657613bbb600082613b8f565b600181019050613ba8565b5050565b601f821115613c0b57613bdc81613aab565b613be584613ac0565b81016020851015613bf4578190505b613c08613c0085613ac0565b830182613ba7565b50505b505050565b600082821c905092915050565b6000613c2e60001984600802613c10565b1980831691505092915050565b6000613c478383613c1d565b9150826002028217905092915050565b613c60826129d9565b67ffffffffffffffff811115613c7957613c78612de2565b5b613c8382546131a8565b613c8e828285613bca565b600060209050601f831160018114613cc15760008415613caf578287015190505b613cb98582613c3b565b865550613d21565b601f198416613ccf86613aab565b60005b82811015613cf757848901518255600182019150602085019450602081019050613cd2565b86831015613d145784890151613d10601f891682613c1d565b8355505b6001600288020188555050505b505050505050565b7f5072696365206d757374206265206174206c6561737420310000000000000000600082015250565b6000613d5f6018836129e4565b9150613d6a82613d29565b602082019050919050565b60006020820190508181036000830152613d8e81613d52565b9050919050565b6000608082019050613daa6000830187612b20565b613db76020830186612b20565b613dc46040830185612bb6565b613dd160608301846129af565b95945050505050565b7f436f756e7465723a2064656372656d656e74206f766572666c6f770000000000600082015250565b6000613e10601b836129e4565b9150613e1b82613dda565b602082019050919050565b60006020820190508181036000830152613e3f81613e03565b9050919050565b7f4552433732313a20617070726f766520746f2063616c6c657200000000000000600082015250565b6000613e7c6019836129e4565b9150613e8782613e46565b602082019050919050565b60006020820190508181036000830152613eab81613e6f565b9050919050565b7f4552433732313a207472616e7366657220746f206e6f6e20455243373231526560008201527f63656976657220696d706c656d656e7465720000000000000000000000000000602082015250565b6000613f0e6032836129e4565b9150613f1982613eb2565b604082019050919050565b60006020820190508181036000830152613f3d81613f01565b9050919050565b600081519050919050565b600082825260208201905092915050565b6000613f6b82613f44565b613f758185613f4f565b9350613f858185602086016129f5565b613f8e81612a1f565b840191505092915050565b6000608082019050613fae6000830187612b20565b613fbb6020830186612b20565b613fc86040830185612bb6565b8181036060830152613fda8184613f60565b905095945050505050565b600081519050613ff48161294a565b92915050565b6000602082840312156140105761400f612914565b5b600061401e84828501613fe5565b91505092915050565b7f4e487b7100000000000000000000000000000000000000000000000000000000600052601260045260246000fd5b600061406182612a8b565b915061406c83612a8b565b92508261407c5761407b614027565b5b828204905092915050565b600061409282612a8b565b915061409d83612a8b565b9250826140ad576140ac614027565b5b82820690509291505056fea264697066735822122021b46fb54314281865c9d545e78806bf78b2a97b8b524200a47b36e3b0b9ed3a64736f6c63430008130033",
  "linkReferences": {},
  "deployedLinkReferences": {}
}